:020000040800F2
:1000000058490020E9010008710B0008730B000833
:10001000770B00087B0B00087F0B00080000000036
:10002000000000000000000000000000FB010008CC
:10003000830B000800000000FF0100080102000817
:10004000030200080302000803020008030200087C
:10005000030200080302000803020008030200086C
:10006000030200080302000803020008030200085C
:10007000030200080302000803020008030200084C
:10008000030200080302000803020008030200083C
:10009000030200080302000803020008030200082C
:1000A000030200080302000803020008030200081C
:1000B000030200080302000803020008030200080C
:1000C00003020008030200080302000803020008FC
:1000D00003020008030200080302000803020008EC
:1000E00003020008030200080302000803020008DC
:1000F00003020008030200080302000803020008CC
:1001000003020008030200080302000803020008BB
:1001100003020008030200080302000803020008AB
:10012000030200080302000803020008030200089B
:10013000DFF80CD001F052FF00480047470B0008E1
:1001400058490020204B19680868B0E8F00F80F388
:100150000988BFF36F8F4FF0000080F311884EF0D5
:100160000D0E70470000000006480068006880F32C
:10017000088862B661B6BFF34F8FBFF36F8F00DFA1
:1001800000BF00BF08ED00E0EFF30980BFF36F8F01
:100190000D4B1A6820E9F00F106008B54FF0BF0052
:1001A00080F3118801F0E5F84FF0000080F311882A
:1001B000BDE8084019680868B0E8F00F80F30988C6
:1001C000BFF36F8F704700BF2C000020EFF311804A
:1001D0004FF0BF0181F31188704780F31188704799
:1001E000EFF3058070470000064880470648004747
:1001F000FEE7FEE7FEE7FEE7FEE7FEE7FEE7FEE7D7
:10020000FEE7FEE7EB020008310100080CB5002014
:10021000019000906C48006840F480306A490860A2
:1002200000BF6948006800F4003000900198401C4D
:100230000190009818B90198B0F5A06FF1D162480B
:10024000006800F4003010B10120009001E00020AF
:1002500000900098012843D15C48006840F01000ED
:100260005A4908600846006820F003000860084604
:10027000006840F0020008605348406852494860F6
:100280000846406848600846406840F4806048601E
:100290000846406820F47C1048600846406840F4F6
:1002A000E81048600846006840F08070086000BFB1
:1002B0004548006800F000700028F9D042484068C6
:1002C00020F00300404948600846406840F00200C2
:1002D000486000BF3C48406800F00C000828F9D195
:1002E0000CBD10B5FFF792FF10BD10B53648006881
:1002F00040F001003449086008464068344908402D
:100300003149486008460068324908402E49086073
:100310000846006820F4802008600846406820F401
:10032000FE0048604FF41F008860FFF7DAFF4FF0CF
:1003300000602949086010BD10B50021002000228E
:10034000214B5B6803F00C0121B1042906D0082978
:1003500028D107E0214B224C236027E01F4B204C83
:10036000236023E0184B5B6803F47010164B5B6846
:1003700003F48032022303EB904022B9194B43432C
:10038000174C23600DE0104B5B6803F4003323B17E
:10039000144B4343124C236003E0104B4343104C77
:1003A000236003E00D4B0E4C236000BF00BF064BE3
:1003B0005B68C3F303130C4CE15C094B1B68CB4037
:1003C000074C236010BD00000010024000200240D6
:1003D0000000FFF8FFFFF6FE08ED00E000127A00D3
:1003E0000000002000093D000400002010B5044674
:1003F000CC48844208D10121042000F02DFB0021CB
:10040000042000F029FB46E0C748844208D10121BE
:10041000082000F021FB0021082000F01DFB3AE03D
:10042000C248844208D10121102000F015FB0021B0
:10043000102000F011FB2EE0BD48844208D10121BC
:10044000202000F009FB0021202000F005FB22E025
:10045000B848844208D10121402000F0FDFA002173
:10046000402000F0F9FA16E0B348844208D1012197
:10047000802000F0F1FA0021802000F0EDFA0AE07F
:10048000AE48844207D10121801500F0E5FA002131
:10049000A01500F0E1FA10BD10B50121084600F0EA
:1004A000DBFA0021012000F0D7FA10BD2DE9F04160
:1004B000024600250026002000230024002791F892
:1004C00003C00CF00F0591F803C00CF0100CBCF148
:1004D000000F03D091F802C04CEA050591F800C066
:1004E000BCF1000F31D0146800202BE04FF0010C5C
:1004F0000CFA00F3B1F800C00CEA03069E4220D1CA
:1005000083004FF00F0C0CFA03F7BC4305FA03FC11
:100510004CEA040491F803C0BCF1280F06D14FF057
:10052000010C0CFA00FCC2F814C00AE091F803C0F8
:10053000BCF1480F05D14FF0010C0CFA00FCC2F8D9
:1005400010C0401C0828D1D31460B1F800C0BCF121
:10055000FF0F34DD546800202EE000F1080C4FF04E
:10056000010808FA0CF3B1F800C00CEA03069E4239
:1005700021D183004FF00F0C0CFA03F7BC4305FAAE
:1005800003FC4CEA040491F803C0BCF1280F05D128
:1005900000F1080C08FA0CF8C2F8148091F803C0B6
:1005A000BCF1480F07D100F1080C4FF0010808FA20
:1005B0000CF8C2F81080401C0828CED35460BDE867
:1005C000F0814FF6FF710180022181700421C1701A
:1005D00070470246002093680B400BB1012000E0F9
:1005E000002070470146886880B2704702460020AC
:1005F000D3680B400BB1012000E00020704701469A
:10060000C86880B2704701617047416170470AB1A4
:10061000016100E041617047C16070474FF4803272
:100620000A43826181618261826982697047024600
:100630000020434B18684FF68073184040EA0210C0
:1006400008433F4B186070473E49C8617047F0B59A
:100650000A46002300240021002500F00046B6F1E0
:10066000004F02D1364EF16901E0354E7168C0F39A
:10067000034583B200F44016B6F5401F08D121F0BF
:1006800070612F4E766826F070662D4F7E6012E006
:1006900000F48016B6F5801F06D1032606FA05F48D
:1006A000A14341F0706106E0460D360103FA06F6FB
:1006B000B14341F0706122B1460D360103FA06F6EE
:1006C000314300F00046B6F1004F02D11C4EF161FB
:1006D00001E01B4E7160F0BD30B500228B071C0F8E
:1006E0000F2303FA04F2164B08338C1053F824300E
:1006F0009343134C08348D1044F8253023468C1056
:1007000053F824308C07240F00FA04F423430C4CD4
:1007100008348D1044F8253030BD0A49DC310860BA
:100720007047000000080140000C0140001001402B
:100730000014014000180140001C0140002001404D
:100740000000014000002042DF48006840F0010046
:10075000DD49086008464068DC490840DA494860DD
:1007600008460068DA490840D7490860084600682A
:1007700020F4802008600846406820F4FE004860AD
:100780004FF41F0088607047CF49096821F4803119
:10079000CD4A11601146096821F480211160B0F53D
:1007A000803F03D0B0F5802F0ED106E0C64909681E
:1007B00041F48031C44A116007E0C349096841F43B
:1007C000A021C14A116000E000BF00BF704710B512
:1007D00001460022002300204A11012A02D1BA4C0E
:1007E000236806E0022A02D1B74C236A01E0B64C26
:1007F000636A01F01F02012494401C400CB10120E7
:1008000000E0002010BD38B5002000900024002535
:1008100000BF3120FFF7DBFF05460098401C009029
:100820000098B0F5A06F01D0002DF2D03120FFF775
:10083000CEFF08B1012400E00024204638BD014667
:100840000020A14A106820F0F80040EAC1001060C2
:100850007047A04908607047024600209A4B5868CC
:1008600020F47C1042EA01031843974B586070470C
:1008700098490866704701460020934A506820F066
:1008800003000843506070478F48406800F00C0038
:100890007047014600208C4A506820F0F000084361
:1008A0005060704701460020874A506820F4E0609D
:1008B00008435060704701460020834A506820F486
:1008C000605040EAC1005060704729B17E4A527AB8
:1008D00002437D4B5A7204E07B4A527A82437A4B40
:1008E0005A7270477B49D831086070470146002032
:1008F000754A506820F4404008435060704700211A
:10090000714A20321170704A82F82010012802D0FA
:1009100004280AD104E001216B4A2032117005E05D
:100920000521694A2032117000E000BF00BF704706
:100930006949086070476449096A0143624A116263
:100940007047654944390860704730B5002100227E
:10095000002400235C4D6D6805F00C0121B10429D1
:1009600005D0082923D105E05C4D056022E05B4DF0
:1009700005601FE0544D6D6805F47012524D6D68AE
:1009800005F48034022505EB92421CB9544D5543C1
:1009900005600BE04C4D6D6805F400351DB1504D00
:1009A0005543056002E04D4D5543056002E04B4D57
:1009B000056000BF00BF444D6D6805F0F0010909F6
:1009C000484D6B5C0568DD4045603F4D6D6805F442
:1009D000E061090A434D6B5C4568DD4085603A4D36
:1009E0006D6805F46051C90A3E4D6B5C4568DD4099
:1009F000C560354D6D6805F44041890B3A4D6B5C1F
:100A0000C568B5FBF3F5056130BD29B12E4A5269C1
:100A100002432D4B5A6104E02B4A526982432A4B10
:100A20005A61704729B1284A92690243264B9A615C
:100A300004E0254A92698243234B9A61704729B1A9
:100A4000214AD2690243204BDA6104E01E4AD2698E
:100A500082431D4BDA61704729B11B4AD2680243B9
:100A6000194BDA6004E0184AD2688243164BDA6008
:100A7000704729B1144A12690243134B1A6104E00A
:100A8000114A12698243104B1A617047124940396A
:100A9000086070470F49C86470470B49C8717047B8
:100AA0000948406A40F08070074948627047014633
:100AB0000020054A92680A400AB1012000E00020A7
:100AC0007047014988727047001002400000FFF82B
:100AD000FFFFF6FE000042428004424200127A000C
:100AE00000093D00140000202400002001B502E0B0
:100AF0000098401E009000980028F9D108BD13E02E
:100B00002020154908601548FFF7F0FF2020124902
:100B1000091F08600120091D08601048FFF7E6FF63
:100B200001200D49091F0860EAE71CB50C480521A2
:100B300000234FF40072CDE900100AA1AFF241008A
:100B400000F04DF91CBD00F01DF8FFF7EEFF00F0BE
:100B50006EFD00BFFEE70000140C0140FFFF0F0018
:100B6000280000205461736B204C65643100000044
:100B7000704700BFFEE700BFFEE700BFFEE700BF13
:100B8000FEE7704708B501210820FFF74BFF202042
:100B9000ADF8000010208DF8030003208DF802004E
:100BA00069460F48FFF782FC0120ADF80000694656
:100BB0000B48FFF77BFC0220ADF8000069460848AF
:100BC000FFF774FC20210648FFF71DFD01210448B2
:100BD000FFF719FD02210248FFF715FD08BD0000CF
:100BE000000C014000F1080141604FF0FF318160CD
:100BF00000F10801C160016100210160704700211E
:100C00000161704742684A6093688B6093685960DD
:100C10009160086103685B1C0360704710B5024671
:100C20000B685C1C0CB9106907E002F1080000E0D9
:100C30004068446824689C42FAD944684C604C6817
:100C4000A160886041600A611468641C146010BD72
:100C500001460A69D1E901309860D1E90103586081
:100C60005068884201D1886850600020086110688F
:100C7000401E10601068704710B5002407E004EBB8
:100C80008401FE4A02EB8100FFF7ACFF641C052CD7
:100C9000F5D3FB48FFF7A6FFFA48FFF7A3FFFA4892
:100CA000FFF7A0FFF948FFF79DFFF948FFF79AFF0C
:100CB000F348F8490860F348F749086010BD10B5DB
:100CC000044601F014F8F5480068401CF349086038
:100CD000F348006840B9F2480460084600680128FB
:100CE0000DD1FFF7C9FF0AE0EE48006838B9EC48BB
:100CF0000068C06AE16A884201D8E9480460EA48AD
:100D00000068401CE849086094F82C1001208840D5
:100D1000E64909680843E5490860E16A01EB810199
:100D2000D64A02EB8100211DFFF76CFF00F0F2FFB5
:100D3000DC48006868B1DA480068C06AE16A884245
:100D400007D24FF08050DA490860BFF34F8FBFF3EE
:100D50006F8F10BD2DE9FF5F80460E469146DDE99D
:100D60000E7A109CA9F10100216B01EB800B2BF096
:100D7000070B86B1002507E0715D04F13400415591
:100D8000705D00B902E06D1C102DF5D300BF00218D
:100D90004320015502E0002084F83400052F00D3E1
:100DA0000427E762201DFFF72AFF04F11800FFF770
:100DB00026FF2461C7F10500A06164620020606421
:100DC00084F8480041465846039A00F05CFF2060D2
:100DD000BAF1000F01D0CAF80040BDE8FF9F2DE92D
:100DE000FF4F85B0804689461746DDE912ABB80053
:100DF00001F021F8064656B14C2001F01CF80446DB
:100E00000CB1266304E0304601F078F800E00024DD
:100E10007CB10020CDE900ABCDE902403A4649461D
:100E20004046089BFFF796FF2046FFF748FF012545
:100E300001E04FF0FF35284609B0BDE8F08F954935
:100E40000968096809B9012100E0002121B14FF0CA
:100E5000FF31984A116006E08E490968C968C86880
:100E6000944A41681160704710B50446206B01F048
:100E700045F8204601F042F810BD70B5054600F077
:100E800036FF15B98648006800E028460446201D54
:100E9000FFF7DEFE78B9E06A00EB8000774951F891
:100EA000200040B994F82C10012088407F4909683F
:100EB00081437E480160A06A18B104F11800FFF771
:100EC000C7FE79480068401C77490860744800688C
:100ED000844209D1211D6D48FFF794FE76480068D1
:100EE000401C7549086009E06C480068401E6B4969
:100EF00008602046FFF7B8FFFFF7A1FF00F00AFFE8
:100F00006848006858B166480068844207D14FF0CD
:100F1000805067490860BFF34F8FBFF36F8F70BD7C
:100F20002DE9F041002765480068002867D1644832
:100F30000068451C624805608DB95648D0F80080AD
:100F400055480068534908605348C0F800805D4820
:100F50000068401C5B490860FFF771FF00BF5548FF
:100F6000006885423BD300BF4A480068006808B962
:100F7000012000E0002020B14FF0FF304D49086013
:100F80002CE044480068C068C4686668B54202D274
:100F90004848066022E0201DFFF75AFEA06A18B1FB
:100FA00004F11800FFF754FE94F82C10012088403B
:100FB0003E49096808433D490860E16A01EB810147
:100FC0002E4A02EB8100211DFFF71CFE3449E06A26
:100FD0000968C96A8842C7D30127C5E700BF3048FE
:100FE0000068C06A00EB8000244951F82000012805
:100FF00000D901273448006800B1012704E03348D4
:101000000068401C314908603846BDE8F08170B581
:101010000024002600F06BFE28480068401E274987
:1010200008600846006800287AD11C48006800283B
:1010300076D04FE01448C068C46804F11800FFF788
:1010400007FE201DFFF704FE94F82C1001208840B5
:1010500016490968084315490860E16A01EB8101F6
:10106000064A02EB8100211DFFF7CCFD0C49E06A26
:101070000968C96A88422DD3012029E08C0000202C
:10108000F000002004010020180100202C010020A5
:101090004001002030000020340000203C000020EF
:1010A0002C000020480000205800002044000020B0
:1010B00004ED00E05C000020380000206400002007
:1010C0004000002054000020500000204C00002070
:1010D000FE490860FE48006808B9012000E00020D1
:1010E0000028A7D00CB1FFF7AAFEFA48056865B141
:1010F00000BFFFF715FF10B10120F44908606D1E15
:10110000002DF6D10020F3490860F048006838B19E
:1011100001263007F0490860BFF34F8FBFF36F8F90
:1011200000F0F8FD304670BD2DE9F04105460E4651
:10113000EA480768EA480068001DFFF789FD50B9D2
:10114000E748006890F82C1001208840E5490968BC
:101150008143E4480160681C38B936B1E048016851
:10116000091DE148FFF74EFD1AE07C19DC480068D4
:101170004460BC4207D2DA480168091DDB480068B8
:10118000FFF74CFD0CE0D6480168091DD8480068FF
:10119000FFF744FDD7480068844201D2D548046077
:1011A000BDE8F081D4480068401CD349086070470E
:1011B0002DE9F047044688464FF00009FFF7F2FF9B
:1011C000C6480668206800EB08052068B04207D9C9
:1011D0002068A8420BD9B54209D94FF0010906E0B1
:1011E0002068A84201D8B54201D94FF00109256015
:1011F000B9F1000F03D0A81B0021FFF795FFFFF7FF
:1012000006FF07463FB94FF08050B3490860BFF36F
:101210004F8FBFF36F8FBDE8F08770B50446002590
:1012200044B1FFF7BFFF00212046FFF77DFFFFF726
:10123000EEFE05463DB94FF08050A7490860BFF368
:101240004F8FBFF36F8F70BD70B5044600F04FFD38
:1012500014B9A348006800E020460646F56A00F08D
:1012600059FD284670BD70B5024600BFBF25EFF39B
:10127000118485F31188BFF34F8FBFF36F8F00BFC9
:10128000214612B9964C246800E014462346D86AD9
:1012900000BF81F3118800BF70BD2DE9F047804683
:1012A0000D464FF00009052D00D3042500F01FFD69
:1012B000B8F1000F02D18A48006800E040460446B9
:1012C000E66AAE4251D0B5420BD9854800688442E7
:1012D0000DD083480068C06AA84208D84FF00109C1
:1012E00005E07F480068844201D14FF00109E76AB8
:1012F000E562A06900F0004010B9C5F10500A061E9
:1013000007EB87017D4A02EB81016069884201D1C8
:10131000012000E00020E0B1201DFFF799FC30B96A
:101320000120B8406F49096881436E48016094F814
:101330002C10012088406B490968084369490860FE
:10134000E16A01EB81016D4A02EB8100211DFFF78B
:1013500059FCB9F1000F07D04FF080505E4908608A
:10136000BFF34F8FBFF36F8F00BF00F0D3FCBDE81A
:10137000F0876148006818B10120544908601DE0F9
:1013800000205249086057480068B0FA80F0C0F168
:101390001F0101EB8102594B03EB82004268526846
:1013A000426000F108024368934202D142685268E9
:1013B00042604268D2684A4B1A6000BF704770B5FD
:1013C000054600F094FC15B94548006800E0284641
:1013D0000446201DFFF73CFC78B9E06A00EB800072
:1013E000464951F8200040B994F82C10012088405B
:1013F0003C49096881433B480160A06A18B104F187
:101400001800FFF725FC211D3748FFF7FBFB94F878
:101410004800012802D1002084F8480000F07AFC3E
:101420003748006828B100F062FCFFF708FD00F0C3
:1014300071FC2B480068844217D13148006840B1E4
:101440004FF0805024490860BFF34F8FBFF36F8F78
:101450000BE0254800682B490968884203D1002029
:101460001F49086001E0FFF784FF70BD10B5014619
:1014700000200A461C4C5369A34201D1012300E01D
:10148000002373B1124C936AA34201D1012300E0FF
:10149000002333B9936A0BB9012300E0002303B1A1
:1014A000012010BD70B505462C460D4800688442E9
:1014B0004DD04CB300F01BFC2046FFF7D7FFE8B33C
:1014C000201DFFF7C5FB94F82C101EE050000020F3
:1014D000180100204C00002004ED00E04000002036
:1014E0002C00002044000020400100203400002097
:1014F000300000205C000020640000208C000020F0
:10150000480000203C00002021E001208840FE49E6
:1015100009680843FC490860E16A01EB8101FB4A64
:1015200002EB8100211DFFF76DFBF949E06A0968B4
:10153000C96A884209D34FF0805000E005E0F549C0
:101540000860BFF34F8FBFF36F8F00F0E3FB70BDF8
:101550002DE9F04106460027344600BFBF21EFF3D6
:10156000118081F31188BFF34F8FBFF36F8F00BFDE
:1015700005462046FFF77AFF20B3E7480068E0B948
:10158000E349E06A0968C96A884200D30127201D3F
:10159000FFF75EFB94F82C1001208840DA490968B7
:1015A0000843D9490860E16A01EB8101D74A02EB9F
:1015B0008100211DFFF726FB04E004F11801D74844
:1015C000FFF720FB00BF85F3118800BF3846BDE858
:1015D000F08110B516E000F08AFBD148C068C468FD
:1015E000201DFFF735FBCF480068401ECD4908603D
:1015F000CD480068401ECC49086000F08BFB2046B7
:10160000FFF732FCC84800680028E4D110BD00BFD5
:10161000FFF7DFFFBD4800680128F9D94FF080507F
:10162000BC490860BFF34F8FBFF36F8FF0E71CB565
:10163000BE4800210B468022CDE90010BCA1BE4867
:10164000FFF7CDFB0446012C14D100BFBF2080F36F
:101650001188BFF34F8FBFF36F8F00BF4FF0FF3084
:10166000B64908600120B64908600020B549086005
:1016700000F01DFB1CBD10B500BFBF2080F311881A
:10168000BFF34F8FBFF36F8F00BF0020AC490860DE
:1016900000F022FB10BDAB49086870470021A94A41
:1016A000106870479F4800687047014611B9984814
:1016B000006800E00846024602F13400704770B549
:1016C00004460025FFF76EFD9F48006820449E49B0
:1016D0000860FFF79CFC0546284670BD70B50546BE
:1016E0000C468B48016818312846FFF797FA01210C
:1016F0002046FFF719FD70BD70B506460C4615462D
:1017000044F00040824909688861814801681831C5
:101710003046FFF777FA01212846FFF705FD70BD37
:1017200070B50646F068C46804F11800FFF790FA37
:1017300079480068A8B9201DFFF78AFA94F82C10A0
:10174000012088407049096808436F490860E16AD0
:1017500001EB81016D4A02EB8100211DFFF752FA76
:1017600004E004F118016D48FFF74CFA6849E06A9B
:101770000968C96A884204D90125012073490860B3
:1017800000E00025284670BD70B505460E4646F0BF
:1017900000402860EC682846FFF75AFA201DFFF742
:1017A00057FA94F82C1001208840574909680843DB
:1017B00055490860E16A01EB8101544A02EB81005E
:1017C000211DFFF71FFA5249E06A0968C96A884279
:1017D00002D901205D49086070BD10B5044600F0D3
:1017E00086FA5B480068206056480068606000F038
:1017F00091FA10BD56490968016052490968416073
:10180000704770B506460C4600F071FA4D48026804
:101810007068131A2068401C08B9002517E04C496D
:1018200030680968884204D07068904201D8012568
:101830000DE02068984207D92068C01A2060304621
:10184000FFF7D8FF002502E000202060012500F00E
:1018500061FA284670BD01203C49086070472C4958
:10186000096888692A490968C96AC1F10501284AD5
:1018700012689161704770B506460D4600F037FA60
:1018800023480068406C88B901202149096881F823
:1018900048005DB101212846FFF746FC4FF080501B
:1018A0001C490860BFF34F8FBFF36F8F00F032FA0F
:1018B00000F01DFA16480068446C4CB126B10020B7
:1018C00013490968486403E0601E114909684864C7
:1018D00000200F49096881F8480000F01BFA2046F3
:1018E00070BD2DE9F0410746884614461D4600F0BC
:1018F000FEF90748006890F8480002283FD00449E4
:10190000096801F1440025E0440000208C0000201B
:101910002C00002004ED00E06400002018010020ED
:101920002C0100203C000020380000206000002036
:1019300049444C45000000000F1600085C000020E0
:1019400048000020400000204C00002050000020F3
:1019500054000020496CB94301600120BD49096869
:1019600081F848005DB101212846FFF7DDFB4FF00B
:101970008050B9490860BFF34F8FBFF36F8F00F0FD
:10198000C9F900F0B4F91CB1B2480068406C20609D
:10199000B048006890F84800022801D0002608E00E
:1019A000AC49096801F14400496C21EA0801016071
:1019B00001260020A749096881F8480000F0AAF92B
:1019C0003046BDE8F0812DE9F04781460D461646C8
:1019D0001F464FF0010A4C4600F089F90FB1606CC8
:1019E000386094F84880022084F84800052E17D209
:1019F000DFE806F01503070B0D00606C28436064F8
:101A00000FE0606C401C60640BE0656409E0B8F1B5
:101A1000020F01D0656401E04FF0000A01E000E030
:101A200000BF00BFB8F1010F22D1201DFFF710F950
:101A300094F82C1001208840884909680843874998
:101A40000860E16A01EB8101854A02EB8100211DFA
:101A5000FFF7D8F87F49E06A0968C96A884207D960
:101A60004FF080507C490860BFF34F8FBFF36F8FFA
:101A700000F050F95046BDE8F0872DE9F84F824656
:101A80000D4616461F46DDF828B00120009054464A
:101A900000BFBF21EFF3118081F31188BFF34F8F97
:101AA000BFF36F8F00BF81460FB1606C386094F850
:101AB0004880022084F84800052E17D2DFE806F09F
:101AC0001503070B0D00606C284360640FE0606C29
:101AD000401C60640BE0656409E0B8F1020F01D0BE
:101AE000656401E00020009001E000E000BF00BF5D
:101AF000B8F1010F2CD15B480068A8B9201DFFF791
:101B0000A7F894F82C10012088405449096808432C
:101B100052490860E16A01EB8101514A02EB810000
:101B2000211DFFF76FF804E004F118014E48FFF79C
:101B300069F84849E06A0968C96A884208D9BBF16E
:101B4000000F02D00120CBF80000012047490860B7
:101B500000BF89F3118800BF0098BDE8F88F2DE918
:101B6000F04105460E462C4600BFBF21EFF3118021
:101B700081F31188BFF34F8FBFF36F8F00BF07460C
:101B800094F84880022084F84800606C401C60642F
:101B9000B8F1010F29D133480068A8B9201DFFF71B
:101BA00057F894F82C10012088402C490968084304
:101BB0002A490860E16A01EB8101294A02EB8100B0
:101BC000211DFFF71FF804E004F118012648FFF774
:101BD00019F82049E06A0968C96A884205D90EB136
:101BE0000120306001202149086000BF87F311887F
:101BF00000BFBDE8F08170B5054615B9154800680D
:101C000000E02846064600F072F896F848000228E0
:101C100004D1002086F84800012400E0002400F0F0
:101C200079F8204670BD2DE9F04104460D4614B9FF
:101C30000848006800E02046064600F058F80548CD
:101C40000068476C706CA843706400F063F8384615
:101C5000BDE8F0812C00002004ED00E044000020ED
:101C60008C0000206400002018010020500000209B
:101C700000BFBF2080F31188BFF34F8FBFF36F8F7A
:101C800000BF00BFFEE7001F4FF080730360001F1E
:101C90000160001F334B0360143802602038704726
:101CA00031484FF0E021486107200861704710B5C6
:101CB0002E48006840F47F002C4908600846006800
:101CC00040F07F400860FFF7EBFF002028490860E4
:101CD000FEF74AFA002010BD70474FF080502349AC
:101CE0001C390860BFF34F8FBFF36F8F704700BF81
:101CF000BF2080F31188BFF34F8FBFF36F8F00BFFA
:101D00001B480068401C1A490860BFF34F8FBFF39F
:101D10006F8F704716480068401E154908600846D6
:101D2000006820B9002080F3118800BF00BF704711
:101D300010B500BFBF20EFF3118180F31188BFF30E
:101D40004F8FBFF36F8F00BFFFF7EAF820B14FF05E
:101D5000805006491C390860002080F3118800BFBC
:101D600010BD0000711C00083F19010020ED00E0CB
:101D70006800002010B50146904800E00068036844
:101D80008B42FBD30246436813448B4204D1436821
:101D90004C682344436001460A464B681344046878
:101DA000A34211D1864C03682468A34208D04B6833
:101DB0000468646823444B6003681B680B6005E09B
:101DC0007F4B1B680B6001E003680B60884200D00A
:101DD000016010BD30B54FF488437A4800F0070425
:101DE0002CB1C01D20F00700764C041B1B1B0246C3
:101DF000724C22600024714D6C60D018083820F0BD
:101E000007006F4C206000246D4D2D686C606C4D98
:101E10002D682C601146441A4C60694C24680C6093
:101E2000694D4C682C60694D4C682C604FF0004443
:101E3000674D2C6030BD2DE9F04105464FF000089C
:101E4000FFF7B0F95E48006808B9FFF7C3FF6048C4
:101E50000068284000284CD145B1083505F007003E
:101E600020B105F00700C0F108000544002D40D066
:101E70005648006885423CD8504E3046046801E020
:101E8000264624686068A84202D220680028F7D15C
:101E90004B48006884422CD0306800F10808206864
:101EA00030606068401B102807D967196068401BC4
:101EB000786065603846FFF75DFF444960680968EF
:101EC000081A42490860084600683F490968884284
:101ED00003D23E4800683C4908603D496068096893
:101EE00008436060002020603A480068401C39497F
:101EF0000860FFF78CF84046BDE8F08170B50646F3
:101F00003546FEB1083D2C463149606809680840F5
:101F1000C0B12068B0B92E49606809688843606024
:101F2000FFF740F9294960680968084427490860B3
:101F30002046FFF71FFF28480068401C264908601C
:101F4000FFF765F870BD2148006870471E480068BB
:101F5000704770472DE9F04104464FF00008002615
:101F6000771EFFF71FF9154805687DB100BF08F11E
:101F700001086868B04200D96E686868B84200D24B
:101F80006F682D680E4800688542F0D1FFF73FF872
:101F90006660A760C4F80C80FFF7A9FE0B480068D4
:101FA00020600C48006860610B480068A06106482A
:101FB00000682061FFF7AEFEBDE8F0816C000020F4
:101FC00074000020540100207C00002078000020D4
:101FD000880000208000002084000020064C074D6F
:101FE00006E0E06840F0010394E8070098471034E9
:101FF000AC42F6D3FEF7A0F82020000840200008ED
:1020000002E008C8121F08C1002AFAD170477047C1
:10201000002001E001C1121F002AFBD1704700001F
:1020200040200008000000208C0000000020000874
:10203000CC2000088C000020CC48000010200008B4
:1020400000A24A0400000000000000000102030496
:10205000060708090000000001020304010203044E
:10206000060708090204060800000000000000003E
:102070000000000000000000000000000000000060
:102080000000000000000000000000000000000050
:102090000000000000000000000000000000000040
:1020A0000000000000000000AAAAAAAA0000000088
:1020B0000000000000000000000000000000000020
:0C20C00000000000000000000000000014
:0400000508000131BD
:00000001FF
